:030000000205BB3B
:03000B0002042DBF
:03001B0002045785
:03002B0002047854
:10002E00C0E0C0D0C000C001C002E4F53CF53DF513
:10003E003EF53FF5407A20E533A2E779047830E6C5
:10004E0033F608D9FA7905783CE636D4F608D9F9AC
:10005E00DAE5D002D001D000D0D0D0E022C0E0C08E
:10006E00D0C000C001C002E4F53CF53DF53EF53FC1
:10007E00F5407A20E533A2E779047830E633F608C6
:10008E00D9FA7905783CC0D0E6243320E70224D093
:10009E0020E30224FDD0D033F608D9EADAD6D00216
:1000AE00D001D000D0D0D0E022C0E0C0D0C000C07F
:1000BE0001C0027A207905C37840E613C0D030E73C
:1000CE000224D030E30224FDF618D0D0D9EC790406
:1000DE007833E613F618D9FADADBD002D001D00065
:1000EE00D0D0D0E022C0E0C0D0E5302534F530E5E8
:1000FE00313535F531E5323536F532E5333537F50F
:10010E0033D0D0D0E022C0E0C0D0C3E5309534F576
:10011E0030E5319535F531E5329536F532E53395E5
:10012E0037F533D0D0D0E022C0E0C0D0C3E5309553
:10013E0034E5319535E5329536E53395379202D073
:10014E00D0D0E022C0E0C0D0C3E5349530E535957F
:10015E0031E5369532E53795339202D0D0D0E02294
:10016E00C0E0C0D0C202C3E53495307014E53595B9
:10017E0031700EE53695327008E53795337002D240
:10018E0002D0D0D0E02212016E20020302015222D0
:10019E0012016E20020302013622C0E0C0F0C0D070
:1001AE00C000C001C002C003E5308534F0A4F8A938
:1001BE00F0E5318534F0A429F9E435F0FAE530851F
:1001CE0035F0A429F9E5F03AFAE433FBE53285344B
:1001DE00F0A42AFAE5F03BFBE5318535F0A42AFAC6
:1001EE00E5F03BFBE5308536F0A42AFAE5F03BFB63
:1001FE00E5338534F0A42BFBE5328535F0A42BFBDB
:10020E00E5318536F0A42BFBE5308537F0A42BFBCA
:10021E008B338A3289318830D003D002D001D0009E
:10022E00D0D0D0F0D0E022C0E0C0D0C000C001C01D
:10023E0002C003C0047C20E4F8F9FAFBC3E53033B6
:10024E00F530E53133F531E53233F532E53333F55B
:10025E0033E833F8E933F9EA33FAEB33FBC3E895C5
:10026E0034E99535EA9536EB95374013E89534F831
:10027E00E99535F9EA9536FAEB9537FB433001DC13
:10028E00BBD004D003D002D001D000D0D0D0E02219
:10029E0085303485313585323685333722E530C5A4
:1002AE0034F530E531C535F531E532C536F532E593
:0602BE0033C537F53322C1
:1002C400C00078B10000D8FCD00022C000C0017981
:1002D4002D78A6D8FED9FADAF6D001D00022D2B30E
:1002E4001202C4C2B322A2E792B7A2E692B6A2E572
:1002F40092B5A2E492B41202E21202C4A2E392B74B
:10030400A2E292B6A2E192B5A2E092B41202E22273
:10031400D2B20202EAC2B20202EAC2B374331203D4
:10032400197433120319743212031974281203193D
:10033400740C1203197401120319C0027A02120216
:10034400CFD00222E4936006120314A380F6224461
:10035400404480020319C0E0E8C4540F443012033F
:0C03640014E8540F4430120314D0E022BF
:10037000506C6179657220313A00506C6179657218
:1003800020323A0020202020202020202020202061
:100390002020202000506C61796572204F6E65200E
:1003A000576F6E2100506C617965722054776F2011
:1003B000576F6E2100506C617965722053636F72C4
:1003C000653A2030004C69766573204C6566743A56
:1003D00020330047616D65204C6F73742100C000AD
:1003E000A84012035AD000C000A83F12035AD00000
:1003F000C000A83E12035AD000C000A83D12035A04
:10040000D000C000A83C12035AD00022E589540055
:100410004411F589758DA9758B9A75F50075F300F2
:10042000C28CC28EC28DC28FD2A9D2AB22C28DC065
:10043000E0C0D0200404B29180180545E545700263
:100440000546E545B4DC0BE546B40506C204C28C9E
:10045000C28DD0E0D0D032C28FC0E0C0D00543E51D
:100460004370020544D0E0D0D03275C80075CB008F
:1004700075CA00C2ADC2CA22C2CFC0E0C0D030032C
:1004800005B28302048E0541E54170020542D0E0C9
:10049000D0D03212040C12046A12031E22C2ADD252
:1004A000CA20C5FD85CD38753920753A8185CC3B8C
:1004B000C2CA22853830853931853A32853B337559
:1004C00034FD7535437536037537001201A8753450
:1004D000C375359E7536267537001200F3853038A2
:1004E00085313985323A85333B22C002AA3812025F
:1004F000CFD002C002AA391202CFD002C002AA3A5B
:100500001202CFD002C002AA3B1202CFD002C00218
:10051000AA381202CFD002C002AA391202CFD002EA
:10052000C002AA3A1202CFD002C002AA3B1202CFE6
:10053000D002C002AA381202CFD002C002AA3912D9
:1005400002CFD002C002AA3A1202CFD002C002AA41
:100550003B1202CFD002C002AA381202CFD002C092
:1005600002AA391202CFD002C002AA3A1202CFD098
:1005700002C002AA3B1202CFD002C002AA38120265
:10058000CFD002C002AA391202CFD002C002AA3ACA
:100590001202CFD002C002AA3B1202CFD00222D256
:1005A000B0D2AB758920758DFA759850D28E30987F
:1005B000FDE5997003C20322D2032275817FD2AF79
:1005C00012059F120493D280D2A0D2C5C291D2AD9F
:1005D000200302800302089712049DC208C0E07441
:1005E0000114120355D0E0C083C082C0E0900370B4
:1005F000120348D0E0D082D083C0E074011412030B
:1006000053D0E0C083C082C0E090037A120348D088
:10061000E0D082D0837548007547001204B3E538F6
:10062000A2E34015758CE9758AD975F4E975F2D99C
:10063000C2011204EAC2048013758CEA758AEE7551
:10064000F4EA75F2EED2011204EAC204D28CC002BE
:100650007A641202CFD002C28CD204758CA9758A3A
:100660009A75F4A975F29A754500754600D28CC248
:100670008E758B00758D00754300754400C28FD256
:100680008E20A0FD30A0FDC28E758B00758D00758B
:100690004300754400C28FD28E20A0FD30A0FDC261
:1006A0008EC28FC2CA75CC0075CD007541007542EF
:1006B00000C2CFD2CA2080FD3080FDC2CA75CC00F6
:1006C00075CD00754100754200C2CFD2CA2080FDB1
:1006D0003080FDC2CAC2CF858B30858D31854332D3
:1006E00085443375342D7535007536007537001225
:1006F00001A87534407535E4753659753704120113
:1007000052D20520023285CC3085CD3185413285EB
:10071000423375342D75350075360075370012017A
:10072000A87534407535E475365975370412015291
:10073000C205200203020804C28CC28D2005593074
:10074000012BC0E0740F14120353D0E0C0E07432E8
:10075000120314D0E00548C0E0740B14120353D008
:10076000E0C000A84812035AD00002081CC0E07480
:100770000F14120353D0E0C0E07431120314D0E020
:100780001548C0E0740B14120353D0E0C000A84811
:1007900012035AD00002081CC0E0740F1412035553
:1007A000D0E0C0E07431120314D0E030012BC0E07F
:1007B000740F14120355D0E0C0E07432120314D049
:1007C000E00547C0E0740B14120355D0E0C000A848
:1007D0004712035AD00002081CC0E0740F14120321
:1007E00055D0E0C0E07431120314D0E01548C0E0E9
:1007F000740B14120355D0E0C000A84712035AD05E
:100800000002081C200402800302066FE547B4655D
:1008100003020821E548B4650302085CC20402062D
:100820001BC0E0740114120355D0E0C083C082C025
:10083000E0900395120348D0E0D082D083C0E074EA
:100840000114120353D0E0C083C082C0E09003843F
:10085000120348D0E0D082D083020A55C0E0740170
:1008600014120353D0E0C083C082C0E09003A512ED
:100870000348D0E0D082D083C0E074011412035545
:10088000D0E0C083C082C0E0900384120348D0E06F
:10089000D082D083020A55C20412049DD2ADC0E0BA
:1008A000740114120355D0E0C083C082C0E09003ED
:1008B000B5120348D0E0D082D083C0E07401141296
:1008C0000353D0E0C083C082C0E09003C512034848
:1008D000D0E0D082D083754A00754903C0027AFF08
:1008E0001202CFD002C0027AFF1202CFD002C002A1
:1008F0007AFF1202CFD002C0027AFF1202CFD002DA
:10090000C0027AFF1202CFD002C0027AFF1202CFD9
:10091000D002C0027AFF1202CFD002C0027AFF12C8
:1009200002CFD0021204B3E538A2E39206758CEA36
:10093000758AEE75F4EA75F2EEC208C204C2ABC263
:100940008FD28CC0027AFF1202CFD002C0027A642A
:100950001202CFD002C28CD20812059FC28EC28F63
:10096000758901400280061209730209A712098DD8
:100970000209A7758CFC758A1975F40075F200D20E
:1009800083D28C308DFDC283C28DC28C22758CF8CF
:10099000758A3175F40075F200D283D28C308DFDEA
:1009A000C283C28DC28C22E503B50635E54A240117
:1009B000D4F54AE549D4F549C0E0740F1412035543
:1009C000D0E0C000A84A12035AD000C0E0740D1451
:1009D000120353D0E0C000A84912035AD000020904
:1009E00024E5492499D4F549E54AD4F54AC0E07490
:1009F0000F14120355D0E0C000A84A12035AD000C9
:100A0000C0E0740D14120353D0E0C000A8491203D3
:100A10005AD000E549B400028003020924C0E07402
:100A20000114120353D0E0C083C082C0E09003845D
:100A3000120348D0E0D082D083C0E07401141203C6
:100A400055D0E0C083C082C0E09003D3120348D0E9
:070A5000E0D082D08380FE9C
:00000001FF
